{
  "_format": "hh-sol-artifact-1",
  "contractName": "Smallsubsudy",
  "sourceName": "contracts/SSubsidy.sol",
  "abi": [
    {
      "inputs": [],
      "stateMutability": "payable",
      "type": "constructor"
    },
    {
      "inputs": [
        {
          "internalType": "address payable",
          "name": "_redeemer",
          "type": "address"
        }
      ],
      "name": "addredeemer",
      "outputs": [],
      "stateMutability": "nonpayable",
      "type": "function"
    },
    {
      "inputs": [],
      "name": "grantsubsidy",
      "outputs": [],
      "stateMutability": "nonpayable",
      "type": "function"
    },
    {
      "inputs": [
        {
          "internalType": "string",
          "name": "_name",
          "type": "string"
        },
        {
          "internalType": "uint256",
          "name": "_value",
          "type": "uint256"
        }
      ],
      "name": "opensubsidy",
      "outputs": [],
      "stateMutability": "nonpayable",
      "type": "function"
    }
  ],
  "bytecode": "0x6080604052336000806101000a81548173ffffffffffffffffffffffffffffffffffffffff021916908373ffffffffffffffffffffffffffffffffffffffff1602179055506105f3806100536000396000f3fe608060405234801561001057600080fd5b50600436106100415760003560e01c80637567ec0414610046578063a895988914610062578063f99578c31461007e575b600080fd5b610060600480360381019061005b9190610329565b610088565b005b61007c600480360381019061007791906104d2565b610146565b005b6100866101a2565b005b60008054906101000a900473ffffffffffffffffffffffffffffffffffffffff1673ffffffffffffffffffffffffffffffffffffffff163373ffffffffffffffffffffffffffffffffffffffff16146100e057600080fd5b6001819080600181540180825580915050600190039060005260206000200160009091909190916101000a81548173ffffffffffffffffffffffffffffffffffffffff021916908373ffffffffffffffffffffffffffffffffffffffff16021790555050565b60008054906101000a900473ffffffffffffffffffffffffffffffffffffffff1673ffffffffffffffffffffffffffffffffffffffff163373ffffffffffffffffffffffffffffffffffffffff161461019e57600080fd5b5050565b60008054906101000a900473ffffffffffffffffffffffffffffffffffffffff1673ffffffffffffffffffffffffffffffffffffffff163373ffffffffffffffffffffffffffffffffffffffff16146101fa57600080fd5b600060018054905060035461020f919061055d565b905060005b6001805490508110156102b357600181815481106102355761023461058e565b5b9060005260206000200160009054906101000a900473ffffffffffffffffffffffffffffffffffffffff1673ffffffffffffffffffffffffffffffffffffffff166108fc839081150290604051600060405180830381858888f193505050501580156102a5573d6000803e3d6000fd5b508080600101915050610214565b5050565b6000604051905090565b600080fd5b600080fd5b600073ffffffffffffffffffffffffffffffffffffffff82169050919050565b60006102f6826102cb565b9050919050565b610306816102eb565b811461031157600080fd5b50565b600081359050610323816102fd565b92915050565b60006020828403121561033f5761033e6102c1565b5b600061034d84828501610314565b91505092915050565b600080fd5b600080fd5b6000601f19601f8301169050919050565b7f4e487b7100000000000000000000000000000000000000000000000000000000600052604160045260246000fd5b6103a982610360565b810181811067ffffffffffffffff821117156103c8576103c7610371565b5b80604052505050565b60006103db6102b7565b90506103e782826103a0565b919050565b600067ffffffffffffffff82111561040757610406610371565b5b61041082610360565b9050602081019050919050565b82818337600083830152505050565b600061043f61043a846103ec565b6103d1565b90508281526020810184848401111561045b5761045a61035b565b5b61046684828561041d565b509392505050565b600082601f83011261048357610482610356565b5b813561049384826020860161042c565b91505092915050565b6000819050919050565b6104af8161049c565b81146104ba57600080fd5b50565b6000813590506104cc816104a6565b92915050565b600080604083850312156104e9576104e86102c1565b5b600083013567ffffffffffffffff811115610507576105066102c6565b5b6105138582860161046e565b9250506020610524858286016104bd565b9150509250929050565b7f4e487b7100000000000000000000000000000000000000000000000000000000600052601260045260246000fd5b60006105688261049c565b91506105738361049c565b9250826105835761058261052e565b5b828204905092915050565b7f4e487b7100000000000000000000000000000000000000000000000000000000600052603260045260246000fdfea2646970667358221220dcd2e2320965514a4775092d6dc49a740cc2edc79c7156247d34be2852eb9f5e64736f6c63430008180033",
  "linkReferences": {},
  "deployedLinkReferences": {}
}